:100000000C942A000C944C090C9479090C94A609C0
:100010000C9447000C9447000C9447000C94470044
:100020000C9447000C9447000C9447000C94470034
:100030000C9447000C9447000C9447000C94470024
:100040000C9447000C9447000C9447000C94470014
:100050000C94470011241FBECFE5D8E0DEBFCDBF12
:1000600010E0A0E6B0E0E8E3F5E302C005900D92F1
:10007000A837B107D9F710E0A8E7B0E001C01D929A
:10008000A238B107E1F70E9411190C949A1A0C9446
:100090000000EF92FF920F931F937B018C0120E0F1
:1000A00030E040E05FE40E94F50388238CF0C80153
:1000B000B70120E030E040E05FE40E94C1010E940F
:1000C00055049B01AC01205030404040504806C0D0
:1000D000C801B7010E9455049B01AC01B901CA01D6
:1000E0001F910F91FF90EF900895A0E0B0E0EBE733
:1000F000F0E00C94631ADC012B01FA019C91923020
:1001000008F439C1EB018881823008F433C194309E
:1001100069F4843009F02FC111969C91119789815F
:10012000981709F428C1A0E6B0E025C1843009F48D
:1001300021C18230A9F4923009F01DC19A01AD01AC
:1001400088E0EA010990AE01E90109929E0181501F
:10015000C1F7E201898111969C918923818308C1AD
:10016000923009F407C112962D903C901397EB0141
:100170008A819B811496AD90BD90CD90DC901797AD
:10018000EC80FD800E811F819101281B390BB90184
:1001900037FF04C066277727621B730B6032710537
:1001A0000CF061C0121613066CF537014801062EDB
:1001B00004C096948794779467940A94D2F721E0C8
:1001C00030E040E050E004C0220F331F441F551FB1
:1001D0006A95D2F721503040404050402E213F21B7
:1001E00040235123211531054105510521F021E01E
:1001F00030E040E050E079018A01E628F72808293C
:1002000019293CC0232BD1F1260E371E350146019A
:10021000062E04C096948794779467940A94D2F734
:1002200021E030E040E050E004C0220F331F441FC3
:10023000551F6A95D2F721503040404050402A2146
:100240003B214C215D21211531054105510521F04E
:1002500021E030E040E050E059016A01A628B728CB
:10026000C828D9280BC0821593052CF01C01AA249C
:10027000BB24650103C0EE24FF24870111969C91E5
:10028000D20111968C91981709F445C0992339F041
:10029000A80197012A193B094C095D0906C0A6016E
:1002A00095012E193F09400B510B57FD08C01182D3
:1002B0003382228224833583468357831DC081E0A5
:1002C00081833382228288279927DC01821B930B4A
:1002D000A40BB50B84839583A683B7830DC0220F2F
:1002E000331F441F551F24833583468357838281E0
:1002F000938101979383828324813581468157813D
:10030000DA01C9010197A109B1098F5F9F4FAF4F72
:10031000BF4328F30BC0918333822282EA0CFB1C7B
:100320000C1D1D1DE482F5820683178383E0808304
:10033000248135814681578157FF1AC0C901AA27F8
:1003400097FDA095BA2F81709070A070B0705695EF
:10035000479537952795822B932BA42BB52B848318
:100360009583A683B7838281938101969383828349
:10037000DF0101C0D201CD01CDB7DEB7E2E10C94BF
:100380007F1AA0E2B0E0E7ECF1E00C946F1A698309
:100390007A838B839C832D833E834F835887E9E048
:1003A000EE2EF12CEC0EFD1ECE010196B7010E943F
:1003B0007E058E010F5E1F4FCE010596B8010E948B
:1003C0007E058A8991E089278A8BC701B801AE0131
:1003D000475E5F4F0E9475000E94A904A096E6E068
:1003E0000C948B1AA0E2B0E0E8EFF1E00C946F1AE5
:1003F00069837A838B839C832D833E834F835887C5
:10040000F9E0EF2EF12CEC0EFD1ECE010196B701A6
:100410000E947E058E010F5E1F4FCE010596B8012A
:100420000E947E05C701B801AE01475E5F4F0E9482
:1004300075000E94A904A096E6E00C948B1AA0E235
:10044000B0E0E5E2F2E00C94631A69837A838B836F
:100450009C832D833E834F835887CE010196BE0136
:10046000675F7F4F0E947E05CE010596BE016F5EDD
:100470007F4F0E947E059985923088F0898982306D
:10048000C8F0943019F4823051F404C0843029F457
:10049000923081F480E690E0C6C0923049F420E0CA
:1004A0009A858A89981321E02A87CE010996BBC0D4
:1004B000823049F420E09A858A89981321E02A8BBA
:1004C000CE014196B0C02D843E844F8458886D88FB
:1004D0007E888F88988CEE24FF248701AA24BB2471
:1004E000650140E050E060E070E0E0E0F0E0C10174
:1004F00081709070892BE9F0E60CF71C081D191D1E
:100500009A01AB012A0D3B1D4C1D5D1D80E090E062
:10051000A0E0B0E0E614F7040805190520F481E036
:1005200090E0A0E0B0E0BA01A901480F591F6A1F8E
:100530007B1FAA0CBB1CCC1CDD1C97FE08C081E0F5
:1005400090E0A0E0B0E0A82AB92ACA2ADB2A3196B6
:10055000E032F10549F0660C771C881C991C569412
:10056000479437942794C3CFFA85EA892B893C892D
:100570008B859C85280F391F2E5F3F4F17C0CA01FE
:1005800081709070892B61F016950795F794E79428
:1005900080E090E0A0E0B0E8E82AF92A0A2B1B2BC3
:1005A00076956795579547952F5F3F4F77FDE7CF36
:1005B0000CC0440F551F661F771F17FD4160EE0CDE
:1005C000FF1C001F111F21503040403090E05907A0
:1005D00090E0690790E4790760F32B8F3C8FDB0193
:1005E000CA018F779070A070B07080349105A1051A
:1005F000B10561F447FD0AC0E114F10401051105DC
:1006000029F0405C5F4F6F4F7F4F40781A8EFE1786
:1006100011F081E08A8F4D8F5E8F6F8F78A383E01A
:10062000898FCE0149960E94A904A096E2E10C941C
:100630007F1AA8E1B0E0EFE1F3E00C946B1A698354
:100640007A838B839C832D833E834F835887B9E0C5
:10065000EB2EF12CEC0EFD1ECE010196B7010E948F
:100660007E058E010F5E1F4FCE010596B8010E94D8
:100670007E052985223008F47EC03989323010F495
:10068000B8017CC08A859A8989278A87243011F02D
:10069000223031F4231709F06EC060E670E06EC0BE
:1006A000343039F41D861E861F86188A1C861B86E8
:1006B00004C0323021F484E08987B7015FC02B8504
:1006C0003C858B899C89281B390B3C872B87ED84C3
:1006D000FE840F851889AD88BE88CF88D88CEA142F
:1006E000FB040C051D0540F4EE0CFF1C001F111F40
:1006F000215030403C872B8720E030E040E050E044
:1007000080E090E0A0E0B0E460E070E0EA14FB0478
:100710000C051D0540F0282B392B4A2B5B2BEA18C2
:10072000FB080C091D09B695A79597958795EE0CC2
:10073000FF1C001F111F6F5F7F4F6F31710531F775
:10074000DA01C9018F779070A070B0708034910584
:10075000A105B10561F427FD0AC0E114F10401050A
:10076000110529F0205C3F4F4F4F5F4F20782D87B8
:100770003E874F87588BBE01675F7F4FCB010E943A
:10078000A9046896EAE00C94871AA8E1B0E0EBECC3
:10079000F3E00C946F1A69837A838B839C832D8397
:1007A0003E834F83588789E0E82EF12CEC0EFD1E26
:1007B000CE010196B7010E947E058E010F5E1F4F8C
:1007C000CE010596B8010E947E058985823040F0F1
:1007D0008989823028F0C701B8010E94F60501C05E
:1007E0008FEF6896E6E00C948B1AA8E1B0E0EBEF8F
:1007F000F3E00C946F1A69837A838B839C832D8337
:100800003E834F83588789E0E82EF12CEC0EFD1EC5
:10081000CE010196B7010E947E058E010F5E1F4F2B
:10082000CE010596B8010E947E058985823040F090
:100830008989823028F0C701B8010E94F60501C0FD
:100840008FEF6896E6E00C948B1AA8E1B0E0EBE23B
:10085000F4E00C946F1A69837A838B839C832D83D5
:100860003E834F83588789E0E82EF12CEC0EFD1E65
:10087000CE010196B7010E947E058E010F5E1F4FCB
:10088000CE010596B8010E947E058985823040F030
:100890008989823028F0C701B8010E94F60501C09D
:1008A00081E06896E6E00C948B1AACE0B0E0EBE5F2
:1008B000F4E00C94731A69837A838B839C83CE0152
:1008C0000196BE016B5F7F4F0E947E058D81823055
:1008D00061F1823050F1843021F48E81882351F10E
:1008E0002EC02F81388537FD20C06E812F31310514
:1008F0001CF06623F9F023C08EE190E0821B930B7D
:1009000029853A854B855C8504C056954795379572
:1009100027958A95D2F76623B1F05095409530958A
:1009200021953F4F4F4F5F4F0EC020E030E040E039
:1009300050E009C02FEF3FEF4FEF5FE704C020E02A
:1009400030E040E050E8B901CA012C96E2E00C9496
:100950008F1ADF92EF92FF920F931F93FC01E480B6
:10096000F58006811781D1808081823048F480E053
:1009700090E0A0E1B0E0E82AF92A0A2B1B2BA5C0E1
:10098000843009F49FC0823021F4EE24FF248701D3
:1009900005C0E114F1040105110519F4E0E0F0E0EF
:1009A00096C0628173819FEF623879070CF05BC05B
:1009B00022E83FEF261B370B2A3131052CF020E0CF
:1009C00030E040E050E02AC0B801A701022E04C088
:1009D00076956795579547950A94D2F781E090E010
:1009E000A0E0B0E004C0880F991FAA1FBB1F2A9582
:1009F000D2F70197A109B1098E219F21A023B1232C
:100A00000097A105B10521F081E090E0A0E0B0E001
:100A10009A01AB01282B392B4A2B5B2BDA01C90138
:100A20008F779070A070B07080349105A105B105EA
:100A300039F427FF09C0205C3F4F4F4F5F4F04C080
:100A4000215C3F4F4F4F5F4FE0E0F0E02030A0E0EF
:100A50003A07A0E04A07A0E45A0710F0E1E0F0E00E
:100A600079018A0127C06038710564F5FB01E158FE
:100A7000FF4FD801C7018F779070A070B07080349D
:100A80009105A105B10539F4E7FE0DC080E490E0C1
:100A9000A0E0B0E004C08FE390E0A0E0B0E0E80E9A
:100AA000F91E0A1F1B1F17FF05C016950795F7941F
:100AB000E794319687E016950795F794E7948A9521
:100AC000D1F705C0EE24FF248701EFEFF0E06E2F91
:100AD000679566276795902F9F77D794DD24D794E5
:100AE0008E2F8695492F462B582F5D29B701CA01B5
:100AF0001F910F91FF90EF90DF900895FC01DB01B3
:100B0000408151812281622F6F7770E0221F22275E
:100B1000221F9381892F880F822B282F30E0991F65
:100B20009927991F11969C93119721153105A9F5C5
:100B3000411551056105710511F482E037C082E865
:100B40009FEF13969C938E9312979A01AB0167E0E7
:100B5000220F331F441F551F6A95D1F783E08C93F2
:100B60000DC0220F331F441F551F12968D919C916B
:100B70001397019713969C938E931297203080E0E1
:100B8000380780E0480780E4580758F314962D93FF
:100B90003D934D935C93179708952F3F310579F45A
:100BA000411551056105710519F484E08C93089590
:100BB00064FF03C081E08C9312C01C9210C02F57B9
:100BC000304013963C932E93129783E08C9387E0EA
:100BD000440F551F661F771F8A95D1F770641496CE
:100BE0004D935D936D937C93179708951F93DC014C
:100BF000FB019C91923008F447C08081823008F458
:100C000043C0943051F411961C91843099F5818140
:100C1000682F70E0611B71093FC0843021F0923071
:100C200031F48230B9F18181882389F12DC0119688
:100C30001C9111978230F1F081811817D9F4129626
:100C40002D913C911397828193818217930794F0A1
:100C500028173907BCF014968D919D910D90BC9189
:100C6000A02D2481358146815781281739074A07ED
:100C70005B0718F4112341F00AC082179307A407F9
:100C8000B50740F4112319F061E070E005C06FEF83
:100C90007FEF02C060E070E0CB011F910895DF9309
:100CA000CF93CDB7DEB7A3E5B0E0E3E5F0E0808118
:100CB00080688C93CF91DF9108950F93DF93CF934A
:100CC000CDB7DEB72F970FB6F894DEBF0FBECDBFFE
:100CD00089836A834B832C830D838981282F30E09D
:100CE0003F872E878E859F858130910509F480C0CE
:100CF0002E853F85223031052CF48E859F85009707
:100D000071F07BC12E853F852230310509F4BFC0CB
:100D10008E859F858330910509F422C16EC1A3E5BC
:100D2000B0E0E3E5F0E080818F7B8C93A3E5B0E059
:100D3000E3E5F0E08081877F8C938A81282F30E083
:100D40003D872C878C859D858130910521F12C85EF
:100D50003D85223031052CF48C859D85009761F00E
:100D60004CC12C853D852230310521F18C859D8536
:100D70008330910571F141C1A3E5B0E0E3E5F0E016
:100D800080818F7E8C93A3E5B0E0E3E5F0E0808185
:100D90008F7D8C9332C1A3E5B0E0E3E5F0E0808184
:100DA00080618C93A3E5B0E0E3E5F0E080818F7D86
:100DB0008C9323C1A3E5B0E0E3E5F0E080818F7E72
:100DC0008C93A3E5B0E0E3E5F0E0808180628C9352
:100DD00014C1A3E5B0E0E3E5F0E0808180618C938D
:100DE000A3E5B0E0E3E5F0E0808180628C9305C18B
:100DF000A3E5B0E0E3E5F0E0808180648C93A3E5B7
:100E0000B0E0E3E5F0E08081877F8C938A81282F32
:100E100030E03B872A878A859B8582309105C9F01F
:100E20002A853B852330310519F18A859B850097FA
:100E300009F0E3C0A3E5B0E0E3E5F0E080818F7E58
:100E40008C93A3E5B0E0E3E5F0E080818F7D8C93A7
:100E5000D4C0A3E5B0E0E3E5F0E080818F7E8C9321
:100E6000A3E5B0E0E3E5F0E0808180628C93C5C04B
:100E7000A3E5B0E0E3E5F0E0808180618C93A3E539
:100E8000B0E0E3E5F0E0808180628C93B6C0A3E53A
:100E9000B0E0E3E5F0E080818F7B8C93A3E5B0E0E8
:100EA000E3E5F0E0808188608C938A81282F30E030
:100EB00039872887888599858130910521F1288592
:100EC0003985223031052CF488859985009761F0A9
:100ED00094C0288539852230310521F1888599858E
:100EE0008330910571F189C0A3E5B0E0E3E5F0E05E
:100EF00080818F7E8C93A3E5B0E0E3E5F0E0808114
:100F00008F7D8C937AC0A3E5B0E0E3E5F0E08081CB
:100F100080618C93A3E5B0E0E3E5F0E080818F7D14
:100F20008C936BC0A3E5B0E0E3E5F0E080818F7EB9
:100F30008C93A3E5B0E0E3E5F0E0808180628C93E0
:100F40005CC0A3E5B0E0E3E5F0E0808180618C93D4
:100F5000A3E5B0E0E3E5F0E0808180628C934DC0D2
:100F6000A3E5B0E0E3E5F0E0808180648C93A3E545
:100F7000B0E0E3E5F0E0808188608C938A81282FDF
:100F800030E03F832E838E819F8182309105C1F0B6
:100F90002E813F812330310511F18E819F81009791
:100FA00061F5A3E5B0E0E3E5F0E080818F7E8C930E
:100FB000A3E5B0E0E3E5F0E080818F7D8C931DC078
:100FC000A3E5B0E0E3E5F0E080818F7E8C93A3E5BC
:100FD000B0E0E3E5F0E0808180628C930EC0A3E591
:100FE000B0E0E3E5F0E0808180618C93A3E5B0E0C0
:100FF000E3E5F0E0808180628C938B810E94100891
:101000008C810E9405098D810E9413092F960FB6CD
:10101000F894DEBF0FBECDBFCF91DF910F91089541
:10102000DF93CF9300D00F92CDB7DEB7898389814C
:10103000282F30E03B832A838A819B81833091056E
:1010400009F470C02A813B812430310584F48A81FF
:101050009B8181309105D1F12A813B81223031057C
:101060000CF04AC08A819B810097D1F0C8C02A81C8
:101070003B812530310509F481C08A819B8185300F
:1010800091050CF465C02A813B812630310509F4B5
:101090008BC08A819B818730910509F49BC0AFC0CA
:1010A000A3E5B0E0E3E5F0E080818E7F8C93A3E5DB
:1010B000B0E0E3E5F0E080818D7F8C93A3E5B0E0C4
:1010C000E3E5F0E080818B7F8C9399C0A3E5B0E0ED
:1010D000E3E5F0E0808181608C93A3E5B0E0E3E597
:1010E000F0E080818D7F8C93A3E5B0E0E3E5F0E054
:1010F00080818B7F8C9383C0A3E5B0E0E3E5F0E0D3
:1011000080818E7F8C93A3E5B0E0E3E5F0E0808101
:1011100082608C93A3E5B0E0E3E5F0E080818B7F13
:101120008C936DC0A3E5B0E0E3E5F0E080818160E1
:101130008C93A3E5B0E0E3E5F0E0808182608C93DE
:10114000A3E5B0E0E3E5F0E080818B7F8C9357C0AE
:10115000A3E5B0E0E3E5F0E080818E7F8C93A3E52A
:10116000B0E0E3E5F0E080818D7F8C93A3E5B0E013
:10117000E3E5F0E0808184608C9341C0A3E5B0E0BA
:10118000E3E5F0E0808181608C93A3E5B0E0E3E5E6
:10119000F0E080818D7F8C93A3E5B0E0E3E5F0E0A3
:1011A000808184608C932BC0A3E5B0E0E3E5F0E0A0
:1011B00080818E7F8C93A3E5B0E0E3E5F0E0808151
:1011C00082608C93A3E5B0E0E3E5F0E08081846089
:1011D0008C9315C0A3E5B0E0E3E5F0E08081816089
:1011E0008C93A3E5B0E0E3E5F0E0808182608C932E
:1011F000A3E5B0E0E3E5F0E0808184608C930F909C
:101200000F900F90CF91DF910895DF93CF930F92BE
:10121000CDB7DEB78983ECE5F0E0898180830F905C
:10122000CF91DF910895DF93CF9300D00F92CDB788
:10123000DEB789838981282F30E03B832A838A8126
:101240009B81009731F02A813B812130310581F06B
:101250001DC0A9E5B0E0E9E5F0E0808182608C93F3
:10126000A9E5B0E0E9E5F0E080818E7F8C930EC0C7
:10127000A9E5B0E0E9E5F0E080818D7F8C93A9E5F8
:10128000B0E0E9E5F0E0808181608C930F900F90F1
:101290000F90CF91DF9108951F920F920FB60F928A
:1012A00011242F933F934F935F936F937F938F936B
:1012B0009F93AF93BF93EF93FF93DF93CF93CDB7FC
:1012C000DEB7E0917800F09179000995CF91DF9138
:1012D000FF91EF91BF91AF919F918F917F916F910E
:1012E0005F914F913F912F910F900FBE0F901F90E4
:1012F00018951F920F920FB60F9211242F933F93C0
:101300004F935F936F937F938F939F93AF93BF930D
:10131000EF93FF93DF93CF93CDB7DEB7E0917A00E1
:10132000F0917B000995CF91DF91FF91EF91BF91F3
:10133000AF919F918F917F916F915F914F913F916D
:101340002F910F900FBE0F901F9018951F920F9224
:101350000FB60F9211242F933F934F935F936F9388
:101360007F938F939F93AF93BF93EF93FF93DF93FD
:10137000CF93CDB7DEB7E0917C00F0917D00099569
:10138000CF91DF91FF91EF91BF91AF919F918F919D
:101390007F916F915F914F913F912F910F900FBE71
:1013A0000F901F901895DF93CF9300D000D00F922D
:1013B000CDB7DEB79A8389836B838B81282F30E08A
:1013C0003D832C838C819D818130910581F02C811E
:1013D0003D812230310591F08C819D810097A1F4EF
:1013E00089819A8190937900809378000DC08981DA
:1013F0009A8190937B0080937A0006C089819A81BC
:1014000090937D0080937C000F900F900F900F9031
:101410000F90CF91DF910895DF93CF93CDB7DEB7D3
:10142000AFE5B0E0EFE5F0E080818F778C93A1E34A
:10143000B0E0E1E3F0E080818F7B8C93A2E3B0E049
:10144000E2E3F0E0808180648C93A5E5B0E0E5E51F
:10145000F0E0808181608C93ABE5B0E0EBE5F0E0FB
:10146000808180648C93AFE5B0E0EFE5F0E08081AF
:1014700080688C93CF91DF910895DF93CF93CDB7A0
:10148000DEB7AFE5B0E0EFE5F0E080818F778C93D9
:10149000A1E3B0E0E1E3F0E080818B7F8C93A2E3F5
:1014A000B0E0E2E3F0E0808184608C93A5E5B0E0F9
:1014B000E5E5F0E0808188608C93ABE5B0E0EBE59A
:1014C000F0E0808180688C93AFE5B0E0EFE5F0E07C
:1014D000808180688C93CF91DF910895DF93CF93C3
:1014E000CDB7DEB7AFE5B0E0EFE5F0E080818F7714
:1014F0008C93A7E3B0E0E7E3F0E080818B7F8C93EF
:10150000A8E3B0E0E8E3F0E0808184608C93A5E597
:10151000B0E0E5E5F0E080818F7B8C93ABE5B0E057
:10152000EBE5F0E0808180628C93AFE5B0E0EFE521
:10153000F0E0808180688C93CF91DF910895DF93F4
:10154000CF93CDB7DEB727970FB6F894DEBF0FBEA7
:10155000CDBF89836A834B838B81813009F06FC053
:101560008981282F30E03F832E838E819F818130B7
:10157000910549F12E813F81223031052CF48E8175
:101580009F81009761F0CEC02E813F8122303105CE
:1015900071F18E819F8183309105E9F1C3C0AAE387
:1015A000B0E0EAE3F0E08081482F8A81282F30E024
:1015B00081E090E0022E02C0880F991F0A94E2F7A2
:1015C000842B8C93AFC0A7E3B0E0E7E3F0E0808129
:1015D000482F8A81282F30E081E090E0022E02C05F
:1015E000880F991F0A94E2F7842B8C939BC0A4E385
:1015F000B0E0E4E3F0E08081482F8A81282F30E0DA
:1016000081E090E0022E02C0880F991F0A94E2F751
:10161000842B8C9387C0A1E3B0E0E1E3F0E080810C
:10162000482F8A81282F30E081E090E0022E02C00E
:10163000880F991F0A94E2F7842B8C9373C08981D9
:10164000282F30E03D832C838C819D818130910552
:1016500059F12C813D81223031052CF48C819D8102
:10166000009769F05FC02C813D812230310589F1FE
:101670008C819D818330910509F440C053C0AAE359
:10168000B0E0EAE3F0E08081482F8A81282F30E043
:1016900081E090E0022E02C0880F991F0A94E2F7C1
:1016A000809584238C933EC0A7E3B0E0E7E3F0E0AD
:1016B0008081482F8A81282F30E081E090E0022E3F
:1016C00002C0880F991F0A94E2F7809584238C93B7
:1016D00029C0A4E3B0E0E4E3F0E08081482F8A81F0
:1016E000282F30E081E090E0022E02C0880F991F81
:1016F0000A94E2F7809584238C9314C0A1E3B0E0B0
:10170000E1E3F0E08081482F8A81282F30E081E0FA
:1017100090E0022E02C0880F991F0A94E2F780958C
:1017200084238C9327960FB6F894DEBF0FBECDBFEF
:10173000CF91DF910895DF93CF93CDB7DEB7279791
:101740000FB6F894DEBF0FBECDBF89836A834B838B
:101750008B81813009F06FC08981282F30E03F8371
:101760002E838E819F818130910549F12E813F81A9
:10177000223031052CF48E819F81009761F0CEC01C
:101780002E813F812230310571F18E819F8183301E
:101790009105E9F1C3C0ABE3B0E0EBE3F0E0808199
:1017A000482F8A81282F30E081E090E0022E02C08D
:1017B000880F991F0A94E2F7842B8C93AFC0A8E39B
:1017C000B0E0E8E3F0E08081482F8A81282F30E004
:1017D00081E090E0022E02C0880F991F0A94E2F780
:1017E000842B8C939BC0A5E3B0E0E5E3F0E080811F
:1017F000482F8A81282F30E081E090E0022E02C03D
:10180000880F991F0A94E2F7842B8C9387C0A2E378
:10181000B0E0E2E3F0E08081482F8A81282F30E0B9
:1018200081E090E0022E02C0880F991F0A94E2F72F
:10183000842B8C9373C08981282F30E03D832C83C7
:101840008C819D818130910559F12C813D8122301F
:1018500031052CF48C819D81009769F05FC02C814B
:101860003D812230310589F18C819D818330910544
:1018700009F440C053C0ABE3B0E0EBE3F0E080819B
:10188000482F8A81282F30E081E090E0022E02C0AC
:10189000880F991F0A94E2F7809584238C933EC0A9
:1018A000A8E3B0E0E8E3F0E08081482F8A81282FA8
:1018B00030E081E090E0022E02C0880F991F0A9468
:1018C000E2F7809584238C9329C0A5E3B0E0E5E39B
:1018D000F0E08081482F8A81282F30E081E090E07D
:1018E000022E02C0880F991F0A94E2F78095842384
:1018F0008C9314C0A2E3B0E0E2E3F0E08081482FD3
:101900008A81282F30E081E090E0022E02C0880F0B
:10191000991F0A94E2F7809584238C9327960FB63B
:10192000F894DEBF0FBECDBFCF91DF910895DF9356
:10193000CF9300D000D00F92CDB7DEB78A836B83F0
:101940008A81282F30E03D832C834C815D8141309A
:10195000510541F18C819D818230910534F42C81B7
:101960003D812115310561F052C04C815D814230CD
:10197000510551F18C819D8183309105B9F147C0AA
:10198000E9E3F0E08081282F30E08B81882F90E020
:10199000A90102C0559547958A95E2F7CA01817061
:1019A000898335C0E6E3F0E08081282F30E08B8129
:1019B000882F90E0A90102C0559547958A95E2F7D6
:1019C000CA018170898323C0E3E3F0E08081282F7E
:1019D00030E08B81882F90E0A90102C05595479592
:1019E0008A95E2F7CA018170898311C0E0E3F0E0D3
:1019F0008081282F30E08B81882F90E0A90102C0E0
:101A0000559547958A95E2F7CA0181708983898146
:101A10000F900F900F900F900F90CF91DF9108953E
:101A2000DF93CF9300D000D0CDB7DEB789836A8330
:101A30008981282F30E03C832B838B819C818130EE
:101A40009105D1F02B813C81223031052CF48B8122
:101A50009C81009761F01EC02B813C8122303105B2
:101A600081F08B819C818330910581F013C0EAE382
:101A7000F0E08A8180830EC0E7E3F0E08A81808312
:101A800009C0E4E3F0E08A81808304C0E1E3F0E090
:101A90008A8180830F900F900F900F90CF91DF91EC
:101AA0000895DF93CF9300D000D0CDB7DEB7898300
:101AB0006A838981282F30E03C832B838B819C8132
:101AC00081309105D1F02B813C81223031052CF4FD
:101AD0008B819C81009761F01EC02B813C8122305C
:101AE000310581F08B819C818330910581F013C099
:101AF000EBE3F0E08A8180830EC0E8E3F0E08A81C6
:101B0000808309C0E5E3F0E08A81808304C0E2E3DA
:101B1000F0E08A8180830F900F900F900F90CF910B
:101B2000DF910895DF93CF9300D00F92CDB7DEB74A
:101B300089838981282F30E03B832A838A819B8196
:101B40008130910509F458C02A813B81223031054A
:101B50002CF48A819B81009771F010C12A813B810E
:101B60002230310509F489C08A819B818330910537
:101B700009F4C4C003C1ABE3B0E0EBE3F0E0908153
:101B800081E089278C93ABE3B0E0EBE3F0E0908158
:101B900082E089278C93ABE3B0E0EBE3F0E0908147
:101BA00084E089278C93ABE3B0E0EBE3F0E0908135
:101BB00088E089278C93ABE3B0E0EBE3F0E0908121
:101BC00080E189278C93ABE3B0E0EBE3F0E0908118
:101BD00080E289278C93ABE3B0E0EBE3F0E0908107
:101BE00080E489278C93ABE3B0E0EBE3F0E09081F5
:101BF00080E889278C93C2C0A8E3B0E0E8E3F0E076
:101C0000908181E089278C93A8E3B0E0E8E3F0E0DD
:101C1000908182E089278C93A8E3B0E0E8E3F0E0CC
:101C2000908184E089278C93A8E3B0E0E8E3F0E0BA
:101C3000908188E089278C93A8E3B0E0E8E3F0E0A6
:101C4000908180E189278C93A8E3B0E0E8E3F0E09D
:101C5000908180E289278C93A8E3B0E0E8E3F0E08C
:101C6000908180E489278C93A8E3B0E0E8E3F0E07A
:101C7000908180E889278C9381C0A5E3B0E0E5E3FB
:101C8000F0E0908181E089278C93A5E3B0E0E5E363
:101C9000F0E0908182E089278C93A5E3B0E0E5E352
:101CA000F0E0908184E089278C93A5E3B0E0E5E340
:101CB000F0E0908188E089278C93A5E3B0E0E5E32C
:101CC000F0E0908180E189278C93A5E3B0E0E5E323
:101CD000F0E0908180E289278C93A5E3B0E0E5E312
:101CE000F0E0908180E489278C93A5E3B0E0E5E300
:101CF000F0E0908180E889278C9340C0A2E3B0E0B7
:101D0000E2E3F0E0908181E089278C93A2E3B0E0E8
:101D1000E2E3F0E0908182E089278C93A2E3B0E0D7
:101D2000E2E3F0E0908184E089278C93A2E3B0E0C5
:101D3000E2E3F0E0908188E089278C93A2E3B0E0B1
:101D4000E2E3F0E0908180E189278C93A2E3B0E0A8
:101D5000E2E3F0E0908180E289278C93A2E3B0E097
:101D6000E2E3F0E0908180E489278C93A2E3B0E085
:101D7000E2E3F0E0908180E889278C930F900F9048
:101D80000F90CF91DF910895DF93CF9300D000D0D3
:101D9000CDB7DEB78A838A81282F30E03C832B833E
:101DA0008B819C8181309105D1F02B813C81223047
:101DB00031052CF48B819C81009761F01EC02B8132
:101DC0003C812230310581F08B819C8183309105EB
:101DD00081F013C0E9E3F0E0808189830EC0E6E37F
:101DE000F0E08081898309C0E3E3F0E080818983AA
:101DF00004C0E0E3F0E08081898389810F900F9037
:101E00000F900F90CF91DF910895DF93CF93CDB7CF
:101E1000DEB7A7E2B0E0E7E2F0E0808180688C9373
:101E2000A7E2B0E0E7E2F0E0808180648C93A7E273
:101E3000B0E0E7E2F0E08081807E8C93A6E2B0E043
:101E4000E6E2F0E0808180688C93A6E2B0E0E6E212
:101E5000F0E08081877F8C93A6E2B0E0E6E2F0E0DC
:101E6000808184608C93A6E2B0E0E6E2F0E08081BD
:101E700082608C93A6E2B0E0E6E2F0E080818E7FA3
:101E80008C93CF91DF910895DF93CF93CDB7DEB7D9
:101E9000A6E2B0E0E6E2F0E0808180648C93CF912E
:101EA000DF910895DF93CF930F92CDB7DEB789838B
:101EB000A7E2B0E0E7E2F0E08081982F907E898190
:101EC0008F71892B8C930E94440FE6E2F0E08081B1
:101ED00082958F70882F90E0817090700097A9F3A1
:101EE000A6E2B0E0E6E2F0E0808180618C93E4E27B
:101EF000F0E0808191810F90CF91DF9108950F9351
:101F0000DF93CF93CDB7DEB76B970FB6F894DEBFF4
:101F10000FBECDBFAAE3B0E0EAE3F0E080818160CC
:101F20008C93ABE3B0E0EBE3F0E0808181608C93D5
:101F300080E090E0A0E2B1E48D8B9E8BAF8BB88FF8
:101F40006D897E898F89988D2BEA3AEA4AE250E4BE
:101F50000E941F02DC01CB01898B9A8BAB8BBC8B5F
:101F600069897A898B899C8920E030E040E85FE3C9
:101F70000E94250488231CF481E0888B91C0698924
:101F80007A898B899C8920E030E04FE753E40E94F6
:101F9000C50318160CF07BC06D897E898F89988DDA
:101FA00020E030E04AE754E40E941903DC01CB0151
:101FB0008C879D87AE87BF876C857D858E859F8545
:101FC00020E030E04AEF54E40E941F02DC01CB0124
:101FD00088879987AA87BB87688579858A859B8545
:101FE00020E030E040E85FE30E94250488232CF4E1
:101FF00081E090E09F838E833FC0688579858A85E4
:102000009B8520E03FEF4FE757E40E94C503181679
:102010004CF56C857D858E859F8520E030E040E223
:1020200051E40E941F02DC01CB01BC01CD010E94E2
:102030004900DC01CB019F838E830FC088EC90E0C8
:102040009D838C838C819D810197F1F79D838C8387
:102050008E819F8101979F838E838E819F810097C0
:1020600069F724C0688579858A859B850E94490027
:10207000DC01CB019F838E838E819F819B838A832A
:102080008A819B810197F1F79B838A830FC06989BD
:102090007A898B899C890E944900DC01CB01888B5D
:1020A0008889898389818A95F1F78983AAE3B0E0D9
:1020B000EAE3F0E080818B7F8C9380E060E043E096
:1020C0002FEF01E00E945D06EBE3F0E08081869552
:1020D0008695882F90E081709070009781F4E2E5FA
:1020E000F0E08081898F898D9AE3692F0E94431ADD
:1020F000882F90E09B8F8A8FE2E5F0E010828A8D36
:102100009B8D6B960FB6F894DEBF0FBECDBFCF91FF
:10211000DF910F910895DF93CF93CDB7DEB7E897A6
:102120000FB6F894DEBF0FBECDBF82E06FEF0E9406
:10213000100D83E060E041E00E949F0A83E061E0CF
:1021400041E00E949F0A83E062E041E00E949F0A12
:1021500080E090E0A8E4B2E48DAB9EABAFABB8AF4B
:102160006DA97EA98FA998AD20E030E04AEF54E434
:102170000E941F02DC01CB0189AB9AABABABBCABBD
:1021800069A97AA98BA99CA920E030E040E85FE327
:102190000E94250488232CF481E090E098AB8FA75F
:1021A0003FC069A97AA98BA99CA920E03FEF4FE71E
:1021B00057E40E94C50318164CF56DA97EA98FA996
:1021C00098AD20E030E040E251E40E941F02DC01C3
:1021D000CB01BC01CD010E944900DC01CB0198ABD1
:1021E0008FA70FC088EC90E09EA78DA78DA59EA518
:1021F0000197F1F79EA78DA78FA598A9019798AB96
:102200008FA78FA598A9009769F714C069A97AA923
:102210008BA99CA90E944900DC01CB0198AB8FA738
:102220008FA598A99CA78BA78BA59CA50197F1F7D3
:102230009CA78BA788E30E94821280E090E0A8E42C
:10224000B2E48FA398A7A9A7BAA76FA178A589A57B
:102250009AA520E030E04AEF54E40E941F02DC011E
:10226000CB018BA39CA3ADA3BEA36BA17CA18DA12D
:102270009EA120E030E040E85FE30E94250488232F
:102280002CF481E090E09AA389A33FC06BA17CA1CC
:102290008DA19EA120E03FEF4FE757E40E94C503C8
:1022A00018164CF56FA178A589A59AA520E030E015
:1022B00040E251E40E941F02DC01CB01BC01CD01D0
:1022C0000E944900DC01CB019AA389A30FC088ECCE
:1022D00090E098A38F8F8F8D98A10197F1F798A325
:1022E0008F8F89A19AA101979AA389A389A19AA105
:1022F000009769F714C06BA17CA18DA19EA10E94DB
:102300004900DC01CB019AA389A389A19AA19E8FE0
:102310008D8F8D8D9E8D0197F1F79E8F8D8F8FE024
:102320000E94821280E090E0A8E4B2E4898F9A8F44
:10233000AB8FBC8F698D7A8D8B8D9C8D20E030E0CA
:102340004AEF54E40E941F02DC01CB018D8B9E8B6F
:10235000AF8BB88F6D897E898F89988D20E030E0B2
:1023600040E85FE30E94250488232CF481E090E09C
:102370009C8B8B8B3FC06D897E898F89988D20E0E7
:102380003FEF4FE757E40E94C50318164CF5698DDF
:102390007A8D8B8D9C8D20E030E040E251E40E94EC
:1023A0001F02DC01CB01BC01CD010E944900DC0110
:1023B000CB019C8B8B8B0FC088EC90E09A8B898B28
:1023C00089899A890197F1F79A8B898B8B899C89E6
:1023D00001979C8B8B8B8B899C89009769F714C024
:1023E0006D897E898F89988D0E944900DC01CB011F
:1023F0009C8B8B8B8B899C89988B8F878F859889F9
:102400000197F1F7988B8F8781E00E94821280E01C
:1024100090E0A8E4B2E48B879C87AD87BE876B858C
:102420007C858D859E8520E030E04AEF54E40E9453
:102430001F02DC01CB018F839887A987BA876F8140
:10244000788589859A8520E030E040E85FE30E9446
:10245000250488232CF481E090E09E838D833FC087
:102460006F81788589859A8520E03FEF4FE757E4B3
:102470000E94C50318164CF56B857C858D859E855D
:1024800020E030E040E251E40E941F02DC01CB0179
:10249000BC01CD010E944900DC01CB019E838D83EC
:1024A0000FC088EC90E09C838B838B819C8101978B
:1024B000F1F79C838B838D819E8101979E838D8311
:1024C0008D819E81009769F714C06F817885898519
:1024D0009A850E944900DC01CB019E838D838D810A
:1024E0009E819A83898389819A810197F1F79A83E2
:1024F0008983E8960FB6F894DEBF0FBECDBFCF91AB
:10250000DF910895DF93CF93CDB7DEB7E9970FB68C
:10251000F894DEBF0FBECDBF89AF83E060E040E03E
:102520000E949B0B83E061E040E00E949B0B83E0F4
:1025300062E040E00E949B0B80E090E0A8E4B2E4FF
:102540008DAB9EABAFABB8AF6DA97EA98FA998AD8F
:1025500020E030E04AEF54E40E941F02DC01CB018E
:1025600089AB9AABABABBCAB69A97AA98BA99CA987
:1025700020E030E040E85FE30E94250488232CF44B
:1025800081E090E098AB8FA73FC069A97AA98BA999
:102590009CA920E03FEF4FE757E40E94C5031816BF
:1025A0004CF56DA97EA98FA998AD20E030E040E2FE
:1025B00051E40E941F02DC01CB01BC01CD010E944D
:1025C0004900DC01CB0198AB8FA70FC088EC90E0ED
:1025D0009EA78DA78DA59EA50197F1F79EA78DA714
:1025E0008FA598A9019798AB8FA78FA598A9009759
:1025F00069F714C069A97AA98BA99CA90E9449000E
:10260000DC01CB0198AB8FA78FA598A99CA78BA7BE
:102610008BA59CA50197F1F79CA78BA783E062E0AF
:1026200041E00E949B0B80E090E0A8E4B2E48FA31D
:1026300098A7A9A7BAA76FA178A589A59AA520E010
:1026400030E04AEF54E40E941F02DC01CB018BA36F
:102650009CA3ADA3BEA36BA17CA18DA19EA120E0F4
:1026600030E040E85FE30E94250488232CF481E0F9
:1026700090E09AA389A33FC06BA17CA18DA19EA1EC
:1026800020E03FEF4FE757E40E94C50318164CF5D2
:102690006FA178A589A59AA520E030E040E251E439
:1026A0000E941F02DC01CB01BC01CD010E94490048
:1026B000DC01CB019AA389A30FC088EC90E098A31A
:1026C0008F8F8F8D98A10197F1F798A38F8F89A194
:1026D0009AA101979AA389A389A19AA1009769F762
:1026E00014C06BA17CA18DA19EA10E944900DC01B8
:1026F000CB019AA389A389A19AA19E8F8D8F8D8DDD
:102700009E8D0197F1F79E8F8D8F82E069AD0E94BB
:10271000510D80E090E0A8E4B2E4898F9A8FAB8FEE
:10272000BC8F698D7A8D8B8D9C8D20E030E04AEFD7
:1027300054E40E941F02DC01CB018D8B9E8BAF8B7A
:10274000B88F6D897E898F89988D20E030E040E8D0
:102750005FE30E94250488232CF481E090E09C8BA9
:102760008B8B3FC06D897E898F89988D20E03FEFEC
:102770004FE757E40E94C50318164CF5698D7A8D12
:102780008B8D9C8D20E030E040E251E40E941F02DE
:10279000DC01CB01BC01CD010E944900DC01CB0171
:1027A0009C8B8B8B0FC088EC90E09A8B898B8989EE
:1027B0009A890197F1F79A8B898B8B899C8901976C
:1027C0009C8B8B8B8B899C89009769F714C06D89D2
:1027D0007E898F89988D0E944900DC01CB019C8BFA
:1027E0008B8B8B899C89988B8F878F859889019794
:1027F000F1F7988B8F8783E062E040E00E949B0BAB
:1028000080E090E0A8E4B2E48B879C87AD87BE8728
:102810006B857C858D859E8520E030E04AEF54E411
:102820000E941F02DC01CB018F839887A987BA879A
:102830006F81788589859A8520E030E040E85FE304
:102840000E94250488232CF481E090E09E838D83F0
:102850003FC06F81788589859A8520E03FEF4FE7FB
:1028600057E40E94C50318164CF56B857C858D8551
:102870009E8520E030E040E251E40E941F02DC012E
:10288000CB01BC01CD010E944900DC01CB019E833C
:102890008D830FC088EC90E09C838B838B819C811F
:1028A0000197F1F79C838B838D819E8101979E8395
:1028B0008D838D819E81009769F714C06F81788523
:1028C00089859A850E944900DC01CB019E838D8316
:1028D0008D819E819A83898389819A810197F1F7FD
:1028E0009A838983E9960FB6F894DEBF0FBECDBFF9
:1028F000CF91DF910895DF93CF93CDB7DEB7E997FE
:102900000FB6F894DEBF0FBECDBF89AF83E060E0A5
:1029100041E00E949B0B83E061E040E00E949B0B42
:1029200083E062E040E00E949B0B80E090E0A8E43E
:10293000B2E48DAB9EABAFABB8AF6DA97EA98FA94A
:1029400098AD20E030E04AEF54E40E941F02DC0121
:10295000CB0189AB9AABABABBCAB69A97AA98BA90C
:102960009CA920E030E040E85FE30E942504882332
:102970002CF481E090E098AB8FA73FC069A97AA9B9
:102980008BA99CA920E03FEF4FE757E40E94C503C5
:1029900018164CF56DA97EA98FA998AD20E030E0FE
:1029A00040E251E40E941F02DC01CB01BC01CD01D9
:1029B0000E944900DC01CB0198AB8FA70FC088ECC7
:1029C00090E09EA78DA78DA59EA50197F1F79EA7E4
:1029D0008DA78FA598A9019798AB8FA78FA598A9C8
:1029E000009769F714C069A97AA98BA99CA90E94CC
:1029F0004900DC01CB0198AB8FA78FA598A99CA7B4
:102A00008BA78BA59CA50197F1F79CA78BA783E0CB
:102A100062E041E00E949B0B80E090E0A8E4B2E419
:102A20008FA398A7A9A7BAA76FA178A589A59AA5EA
:102A300020E030E04AEF54E40E941F02DC01CB01A9
:102A40008BA39CA3ADA3BEA36BA17CA18DA19EA1D2
:102A500020E030E040E85FE30E94250488232CF466
:102A600081E090E09AA389A33FC06BA17CA18DA1D6
:102A70009EA120E03FEF4FE757E40E94C5031816E0
:102A80004CF56FA178A589A59AA520E030E040E239
:102A900051E40E941F02DC01CB01BC01CD010E9468
:102AA0004900DC01CB019AA389A30FC088EC90E018
:102AB00098A38F8F8F8D98A10197F1F798A38F8F8F
:102AC00089A19AA101979AA389A389A19AA10097A4
:102AD00069F714C06BA17CA18DA19EA10E94490041
:102AE000DC01CB019AA389A389A19AA19E8F8D8F26
:102AF0008D8D9E8D0197F1F79E8F8D8F82E069AD50
:102B00000E94510D80E090E0A8E4B2E4898F9A8F92
:102B1000AB8FBC8F698D7A8D8B8D9C8D20E030E0E2
:102B20004AEF54E40E941F02DC01CB018D8B9E8B87
:102B3000AF8BB88F6D897E898F89988D20E030E0CA
:102B400040E85FE30E94250488232CF481E090E0B4
:102B50009C8B8B8B3FC06D897E898F89988D20E0FF
:102B60003FEF4FE757E40E94C50318164CF5698DF7
:102B70007A8D8B8D9C8D20E030E040E251E40E9404
:102B80001F02DC01CB01BC01CD010E944900DC0128
:102B9000CB019C8B8B8B0FC088EC90E09A8B898B40
:102BA00089899A890197F1F79A8B898B8B899C89FE
:102BB00001979C8B8B8B8B899C89009769F714C03C
:102BC0006D897E898F89988D0E944900DC01CB0137
:102BD0009C8B8B8B8B899C89988B8F878F85988911
:102BE0000197F1F7988B8F8783E062E040E00E94C5
:102BF0009B0B80E090E0A8E4B2E48B879C87AD87D4
:102C0000BE876B857C858D859E8520E030E04AEF10
:102C100054E40E941F02DC01CB018F839887A987AF
:102C2000BA876F81788589859A8520E030E040E811
:102C30005FE30E94250488232CF481E090E09E83CA
:102C40008D833FC06F81788589859A8520E03FEF2D
:102C50004FE757E40E94C50318164CF56B857C8539
:102C60008D859E8520E030E040E251E40E941F0205
:102C7000DC01CB01BC01CD010E944900DC01CB018C
:102C80009E838D830FC088EC90E09C838B838B8127
:102C90009C810197F1F79C838B838D819E810197A5
:102CA0009E838D838D819E81009769F714C06F810B
:102CB000788589859A850E944900DC01CB019E8335
:102CC0008D838D819E819A83898389819A810197E1
:102CD000F1F79A838983E9960FB6F894DEBF0FBEA9
:102CE000CDBFCF91DF910895DF93CF9300D00F92A6
:102CF000CDB7DEB79B838A8319820EC08981282FC6
:102D000030E08A819B81FC01E20FF31F80810E94E9
:102D10007B1489818F5F89838981282F30E08A81A4
:102D20009B81FC01E20FF31F8081882339F70F900C
:102D30000F900F90CF91DF910895DF93CF9300D044
:102D400000D00F92CDB7DEB78A836B838A81282F9C
:102D500030E03D832C838C819D81009731F02C8164
:102D60003D812034310551F011C09A818B81890F4A
:102D70008983898180680E94821208C09A818B8130
:102D8000890F8983898180680E9482120F900F9039
:102D90000F900F900F90CF91DF910895DF93CF9315
:102DA00000D000D0CDB7DEB79A8389836B834C8384
:102DB0008B816C810E949D1689819A810E94741674
:102DC0000F900F900F900F90CF91DF910895DF93A8
:102DD000CF9300D000D00F92CDB7DEB78B838B811D
:102DE0008A8381E0898314C08981882F90E09C01C7
:102DF000220F331FC901880F991F880F991F820F57
:102E0000931F89838A819AE0692F0E94431A8A83DB
:102E10008A81882349F789819AE0692F0E94431AA1
:102E2000898382C08B819981692F0E94431A282F40
:102E300030E03D832C838C819D818430910509F4A1
:102E40004FC02C813D8125303105D4F48C819D818A
:102E500081309105C9F12C813D81223031052CF45E
:102E60008C819D81009761F152C02C813D8122307F
:102E7000310571F18C819D818330910569F147C0E5
:102E80002C813D8127303105B9F18C819D818830BD
:102E900091055CF42C813D812530310529F18C812F
:102EA0009D818630910521F132C02C813D812830F1
:102EB000310531F18C819D818930910529F127C03F
:102EC00080E30E947B1423C081E30E947B141FC017
:102ED00082E30E947B141BC083E30E947B1417C013
:102EE00084E30E947B1413C085E30E947B140FC00F
:102EF00086E30E947B140BC087E30E947B1407C00B
:102F000088E30E947B1403C089E30E947B148B81B9
:102F10009981692F0E94431A892F8B8389819AE0B6
:102F2000692F0E94431A89838B81882309F07ACF05
:102F30000F900F900F900F900F90CF91DF91089509
:102F4000DF93CF93CDB7DEB780E060E041E00E9431
:102F50009F0A80E061E041E00E949F0A80E062E019
:102F600041E00E949F0A80E063E041E00E949F0AE6
:102F700080E060E041E00E949B0B80E061E041E086
:102F80000E949B0B80E062E041E00E949B0B80E08E
:102F900063E041E00E949B0B80E064E040E00E941F
:102FA0009F0A80E065E040E00E949F0A80E066E0C2
:102FB00040E00E949F0A80E067E040E00E949F0A94
:102FC00080E064E041E00E949B0B80E065E041E02E
:102FD0000E949B0B80E066E041E00E949B0B80E03A
:102FE00067E041E00E949B0BCF91DF910895DF9352
:102FF000CF9300D000D0CDB7DEB781E08B831A82AB
:103000003FC080E06A8140E00E949B0B84E089839E
:103010002CC080E069810E94970C882319F580E01C
:1030200069810E94970C8823D1F38981882F90E0D1
:10303000AC01445050408A81282F30E0CA01880FEB
:10304000991F880F991F820F931FFC01E859FF4FAA
:1030500080818B8380E06A8141E00E949B0B8B81A1
:103060008C8314C089818F5F89838981883088F23D
:1030700080E06A8141E00E949B0B8A818F5F8A8396
:103080008A81843008F4BDCF8B818C838C810F9032
:103090000F900F900F90CF91DF910895DF93CF9312
:1030A000CDB7DEB7E7E3F0E08FEF8083A8E3B0E0D1
:1030B000E8E3F0E0808180688C93A8E3B0E0E8E387
:1030C000F0E080818F7B8C93A8E3B0E0E8E3F0E050
:1030D000808180628C93A8E3B0E0E8E3F0E0808137
:1030E0008F7E8C93CF91DF910895DF93CF93CDB7EF
:1030F000DEB7E7E3F0E08FEF8083A8E3B0E0E8E33A
:10310000F0E080818F778C93A8E3B0E0E8E3F0E013
:10311000808180648C93A8E3B0E0E8E3F0E08081F4
:103120008F7D8C93A8E3B0E0E8E3F0E080818061DC
:103130008C93CF91DF910895DF93CF93CDB7DEB716
:10314000E7E3F0E08FEF8083A8E3B0E0E8E3F0E0AE
:1031500080818F778C93A8E3B0E0E8E3F0E0808192
:1031600080648C93A8E3B0E0E8E3F0E080818062C3
:103170008C93A8E3B0E0E8E3F0E080818F7E8C934D
:10318000CF91DF910895DF93CF93CDB7DEB7E7E31B
:10319000F0E08FEF8083A8E3B0E0E8E3F0E0808127
:1031A00080688C93A8E3B0E0E8E3F0E080818F7B57
:1031B0008C93A8E3B0E0E8E3F0E080818F7D8C930E
:1031C000A8E3B0E0E8E3F0E0808180618C93CF91E8
:1031D000DF910895DF93CF93CDB7DEB7E7E3F0E05B
:1031E0008FEF8083A8E3B0E0E8E3F0E080818F77A1
:1031F0008C93A8E3B0E0E8E3F0E080818F7B8C93D0
:10320000A8E3B0E0E8E3F0E080818F7D8C93A8E351
:10321000B0E0E8E3F0E080818F7E8C93CF91DF9186
:103220000895DF93CF93CDB7DEB76A970FB6F894C2
:10323000DEBF0FBECDBF0E948B100E940C0A81E141
:103240009AE160E00E94D3091A8E198E7894A1E366
:10325000B0E0E1E3F0E0808181608C93A1E3B0E035
:10326000E1E3F0E080818B7F8C93A2E3B0E0E2E3C6
:10327000F0E0808181608C9380E090E0A0E7B1E491
:103280008D8B9E8BAF8BB88F6D897E898F89988D42
:103290002BEA3AEA4AE250E40E941F02DC01CB0129
:1032A000898B9A8BAB8BBC8B69897A898B899C893A
:1032B00020E030E040E85FE30E94250488231CF40E
:1032C00081E0888B91C069897A898B899C8920E00B
:1032D00030E04FE753E40E94C50318160CF07BC0A2
:1032E0006D897E898F89988D20E030E04AE754E42B
:1032F0000E941903DC01CB018C879D87AE87BF87B5
:103300006C857D858E859F8520E030E04AEF54E412
:103310000E941F02DC01CB0188879987AA87BB879F
:10332000688579858A859B8520E030E040E85FE309
:103330000E94250488232CF481E090E09F838E83F3
:103340003FC0688579858A859B8520E03FEF4FE700
:1033500057E40E94C50318164CF56C857D858E8553
:103360009F8520E030E040E251E40E941F02DC0132
:10337000CB01BC01CD010E944900DC01CB019F8340
:103380008E830FC088EC90E09D838C838C819D811F
:103390000197F1F79D838C838E819F8101979F8395
:1033A0008E838E819F81009769F724C06885798517
:1033B0008A859B850E944900DC01CB019F838E8317
:1033C0008E819F819B838A838A819B810197F1F7FC
:1033D0009B838A830FC069897A898B899C890E9423
:1033E0004900DC01CB01888B8889898389818A9592
:1033F000F1F78983A2E3B0E0E2E3F0E080818E7F21
:103400008C9380917E0090917F002AE330E0B90197
:103410000E944F1ACB019A8F898F898D0E94E716DF
:1034200024CFDF93CF93CDB7DEB78091800090910A
:103430008100009771F4AEE4B0E0EEE4F0E080814A
:1034400081608C9381E090E0909381008093800074
:1034500017C0AEE4B0E0EEE4F0E080818E7F8C93A4
:10346000ECE4F0E08081918190937F0080937E0076
:10347000ECE4F0E011821082109281001092800042
:10348000CF91DF910895991B79E004C0991F961799
:1034900008F0961B881F7A95C9F780950895AA1B96
:1034A000BB1B51E107C0AA1FBB1FA617B70710F02F
:1034B000A61BB70B881F991F5A95A9F78095909561
:1034C000BC01CD0108952F923F924F925F926F926F
:1034D0007F928F929F92AF92BF92CF92DF92EF92A4
:1034E000FF920F931F93CF93DF93CDB7DEB7CA1B25
:1034F000DB0B0FB6F894DEBF0FBECDBF09942A8850
:10350000398848885F846E847D848C849B84AA84F7
:10351000B984C884DF80EE80FD800C811B81AA8184
:10352000B981CE0FD11D0FB6F894DEBF0FBECDBF4F
:08353000ED010895F894FFCFAE
:1035380000000000000000003132332B3435362DF6
:083548003738392A25303D2FE8
:00000001FF
